{
  "address": "0x6cf555f88bC2C97e7D7c004CbBA12ACf098c9A87",
  "abi": [
    {
      "inputs": [
        {
          "internalType": "address",
          "name": "tokenAddress",
          "type": "address"
        }
      ],
      "stateMutability": "nonpayable",
      "type": "constructor"
    },
    {
      "anonymous": false,
      "inputs": [
        {
          "indexed": false,
          "internalType": "address",
          "name": "buyer",
          "type": "address"
        },
        {
          "indexed": false,
          "internalType": "uint256",
          "name": "amountOfETH",
          "type": "uint256"
        },
        {
          "indexed": false,
          "internalType": "uint256",
          "name": "amountOfTokens",
          "type": "uint256"
        }
      ],
      "name": "BuyTokens",
      "type": "event"
    },
    {
      "anonymous": false,
      "inputs": [
        {
          "indexed": true,
          "internalType": "address",
          "name": "previousOwner",
          "type": "address"
        },
        {
          "indexed": true,
          "internalType": "address",
          "name": "newOwner",
          "type": "address"
        }
      ],
      "name": "OwnershipTransferred",
      "type": "event"
    },
    {
      "anonymous": false,
      "inputs": [
        {
          "indexed": false,
          "internalType": "address",
          "name": "seller",
          "type": "address"
        },
        {
          "indexed": false,
          "internalType": "uint256",
          "name": "amountOfTokens",
          "type": "uint256"
        },
        {
          "indexed": false,
          "internalType": "uint256",
          "name": "amountOfETH",
          "type": "uint256"
        }
      ],
      "name": "SellTokens",
      "type": "event"
    },
    {
      "inputs": [],
      "name": "buyTokens",
      "outputs": [
        {
          "internalType": "uint256",
          "name": "tokenAmount",
          "type": "uint256"
        }
      ],
      "stateMutability": "payable",
      "type": "function"
    },
    {
      "inputs": [],
      "name": "owner",
      "outputs": [
        {
          "internalType": "address",
          "name": "",
          "type": "address"
        }
      ],
      "stateMutability": "view",
      "type": "function"
    },
    {
      "inputs": [],
      "name": "renounceOwnership",
      "outputs": [],
      "stateMutability": "nonpayable",
      "type": "function"
    },
    {
      "inputs": [
        {
          "internalType": "uint256",
          "name": "tokenAmountToSell",
          "type": "uint256"
        }
      ],
      "name": "sellTokens",
      "outputs": [],
      "stateMutability": "nonpayable",
      "type": "function"
    },
    {
      "inputs": [],
      "name": "tokensPerEth",
      "outputs": [
        {
          "internalType": "uint256",
          "name": "",
          "type": "uint256"
        }
      ],
      "stateMutability": "view",
      "type": "function"
    },
    {
      "inputs": [
        {
          "internalType": "address",
          "name": "newOwner",
          "type": "address"
        }
      ],
      "name": "transferOwnership",
      "outputs": [],
      "stateMutability": "nonpayable",
      "type": "function"
    },
    {
      "inputs": [],
      "name": "withdraw",
      "outputs": [],
      "stateMutability": "nonpayable",
      "type": "function"
    }
  ],
  "transactionHash": "0x8fb4c9f9f009ba6d32c9d0d1434eac138f82a28bae4b61e3a88452289add4a1e",
  "args": [
    "0x2be32B587e2e5759BD3F5479f1F95464EE5c6c1e"
  ],
  "numDeployments": 1,
  "solcInputHash": "f1d061b36643a681f6d4c458cf8d7902",
  "bytecode": "0x6080604052606460025534801561001557600080fd5b50604051610b4f380380610b4f833981016040819052610034916100b2565b61003d33610062565b600180546001600160a01b0319166001600160a01b03929092169190911790556100e0565b600080546001600160a01b038381166001600160a01b0319831681178455604051919092169283917f8be0079c531659141344cd1fd0a4f28419497f9722a3daafe3b4186f6b6457e09190a35050565b6000602082840312156100c3578081fd5b81516001600160a01b03811681146100d9578182fd5b9392505050565b610a60806100ef6000396000f3fe6080604052600436106100705760003560e01c80638da5cb5b1161004e5780638da5cb5b146100c1578063cbdd69b5146100ee578063d0febe4c14610112578063f2fde38b1461011a57600080fd5b80633ccfd60b146100755780636c11bcd31461008c578063715018a6146100ac575b600080fd5b34801561008157600080fd5b5061008a61013a565b005b34801561009857600080fd5b5061008a6100a73660046109af565b610251565b3480156100b857600080fd5b5061008a6105bd565b3480156100cd57600080fd5b506000546040516001600160a01b0390911681526020015b60405180910390f35b3480156100fa57600080fd5b5061010460025481565b6040519081526020016100e5565b6101046105d1565b34801561012657600080fd5b5061008a610135366004610961565b61083e565b6101426108b7565b478061019f5760405162461bcd60e51b815260206004820152602160248201527f4f776e657220686173206e6f742062616c616e636520746f20776974686472616044820152607760f81b60648201526084015b60405180910390fd5b604051600090339047908381818185875af1925050503d80600081146101e1576040519150601f19603f3d011682016040523d82523d6000602084013e6101e6565b606091505b505090508061024d5760405162461bcd60e51b815260206004820152602d60248201527f4661696c656420746f2073656e6420757365722062616c616e6365206261636b60448201526c103a37903a34329037bbb732b960991b6064820152608401610196565b5050565b600081116102b65760405162461bcd60e51b815260206004820152602c60248201527f5370656369667920616e20616d6f756e74206f6620746f6b656e20677265617460448201526b6572207468616e207a65726f60a01b6064820152608401610196565b6001546040516370a0823160e01b81523360048201526000916001600160a01b0316906370a082319060240160206040518083038186803b1580156102fa57600080fd5b505afa15801561030e573d6000803e3d6000fd5b505050506040513d601f19601f8201168201806040525081019061033291906109c7565b9050818110156103ac576040805162461bcd60e51b81526020600482015260248101919091527f596f75722062616c616e6365206973206c6f776572207468616e20746865206160448201527f6d6f756e74206f6620746f6b656e7320796f752077616e7420746f2073656c6c6064820152608401610196565b6000600254836103bc91906109df565b9050478181101561042e5760405162461bcd60e51b815260206004820152603660248201527f56656e646f7220686173206e6f7420656e6f7567682066756e647320746f206160448201527518d8d95c1d081d1a19481cd95b1b081c995c5d595cdd60521b6064820152608401610196565b6001546040516323b872dd60e01b8152336004820152306024820152604481018690526000916001600160a01b0316906323b872dd90606401602060405180830381600087803b15801561048157600080fd5b505af1158015610495573d6000803e3d6000fd5b505050506040513d601f19601f820116820180604052508101906104b9919061098f565b90508061051e5760405162461bcd60e51b815260206004820152602d60248201527f4661696c656420746f207472616e7366657220746f6b656e732066726f6d207560448201526c39b2b9103a37903b32b73237b960991b6064820152608401610196565b60405133908490600081818185875af1925050503d806000811461055e576040519150601f19603f3d011682016040523d82523d6000602084013e610563565b606091505b505080915050806105b65760405162461bcd60e51b815260206004820152601e60248201527f4661696c656420746f2073656e642045544820746f20746865207573657200006044820152606401610196565b5050505050565b6105c56108b7565b6105cf6000610911565b565b60008034116106225760405162461bcd60e51b815260206004820152601b60248201527f53656e642045544820746f2062757920736f6d6520746f6b656e7300000000006044820152606401610196565b60006002543461063291906109ff565b6001546040516370a0823160e01b81523060048201529192506000916001600160a01b03909116906370a082319060240160206040518083038186803b15801561067b57600080fd5b505afa15801561068f573d6000803e3d6000fd5b505050506040513d601f19601f820116820180604052508101906106b391906109c7565b9050818110156107225760405162461bcd60e51b815260206004820152603460248201527f56656e646f7220636f6e747261637420686173206e6f7420656e6f75676820746044820152736f6b656e7320696e206974732062616c616e636560601b6064820152608401610196565b60015460405163a9059cbb60e01b8152336004820152602481018490526000916001600160a01b03169063a9059cbb90604401602060405180830381600087803b15801561076f57600080fd5b505af1158015610783573d6000803e3d6000fd5b505050506040513d601f19601f820116820180604052508101906107a7919061098f565b9050806107f65760405162461bcd60e51b815260206004820181905260248201527f4661696c656420746f207472616e7366657220746f6b656e20746f20757365726044820152606401610196565b604080513381523460208201529081018490527f0a37b72bb67eee30e09084cf386f8a17817c57f620c3ab95fb25d6a20356ec779060600160405180910390a1509092915050565b6108466108b7565b6001600160a01b0381166108ab5760405162461bcd60e51b815260206004820152602660248201527f4f776e61626c653a206e6577206f776e657220697320746865207a65726f206160448201526564647265737360d01b6064820152608401610196565b6108b481610911565b50565b6000546001600160a01b031633146105cf5760405162461bcd60e51b815260206004820181905260248201527f4f776e61626c653a2063616c6c6572206973206e6f7420746865206f776e65726044820152606401610196565b600080546001600160a01b038381166001600160a01b0319831681178455604051919092169283917f8be0079c531659141344cd1fd0a4f28419497f9722a3daafe3b4186f6b6457e09190a35050565b600060208284031215610972578081fd5b81356001600160a01b0381168114610988578182fd5b9392505050565b6000602082840312156109a0578081fd5b81518015158114610988578182fd5b6000602082840312156109c0578081fd5b5035919050565b6000602082840312156109d8578081fd5b5051919050565b6000826109fa57634e487b7160e01b81526012600452602481fd5b500490565b6000816000190483118215151615610a2557634e487b7160e01b81526011600452602481fd5b50029056fea26469706673582212205270f06cc9a328bebe391d5018c75a0808cb29f15422c5097b6f78098c06126c64736f6c63430008040033",
  "devdoc": {
    "kind": "dev",
    "methods": {
      "owner()": {
        "details": "Returns the address of the current owner."
      },
      "renounceOwnership()": {
        "details": "Leaves the contract without owner. It will not be possible to call `onlyOwner` functions anymore. Can only be called by the current owner. NOTE: Renouncing ownership will leave the contract without an owner, thereby removing any functionality that is only available to the owner."
      },
      "transferOwnership(address)": {
        "details": "Transfers ownership of the contract to a new account (`newOwner`). Can only be called by the current owner."
      }
    },
    "version": 1
  },
  "userdoc": {
    "kind": "user",
    "methods": {
      "buyTokens()": {
        "notice": "Allow users to buy tokens for ETH"
      },
      "sellTokens(uint256)": {
        "notice": "Allow users to sell tokens for ETH"
      },
      "withdraw()": {
        "notice": "Allow the owner of the contract to withdraw ETH"
      }
    },
    "version": 1
  },
  "storageLayout": {
    "storage": [
      {
        "astId": 7,
        "contract": "contracts/Vendor.sol:Vendor",
        "label": "_owner",
        "offset": 0,
        "slot": "0",
        "type": "t_address"
      },
      {
        "astId": 834,
        "contract": "contracts/Vendor.sol:Vendor",
        "label": "yourToken",
        "offset": 0,
        "slot": "1",
        "type": "t_contract(YourToken)1078"
      },
      {
        "astId": 837,
        "contract": "contracts/Vendor.sol:Vendor",
        "label": "tokensPerEth",
        "offset": 0,
        "slot": "2",
        "type": "t_uint256"
      }
    ],
    "types": {
      "t_address": {
        "encoding": "inplace",
        "label": "address",
        "numberOfBytes": "20"
      },
      "t_contract(YourToken)1078": {
        "encoding": "inplace",
        "label": "contract YourToken",
        "numberOfBytes": "20"
      },
      "t_uint256": {
        "encoding": "inplace",
        "label": "uint256",
        "numberOfBytes": "32"
      }
    }
  }
}